:020000040800F2
:10000000F8FF01207DC904088F3E04087D3E0408E6
:10001000913E0408A13E0408B13E0408000000001F
:10002000000000000000000000000000C13E0408C5
:10003000C33E040800000000014F04085D4F04089F
:1000400071C80408B13F0408BD3F0408C53F040857
:10005000FDB9040871C80408453F04084B3F040873
:10006000513F0408573F04085D3F0408CD71040860
:10007000DD710408ED710408FD7104080D720408B7
:100080001D7204082D72040871C8040800000000E5
:10009000000000000000000000000000633F0408B2
:1000A000D93F0408DF3F0408F13F0408F73F040884
:1000B000FD3F040803400408094004083B400408CD
:1000C00041400408474004084D40040871C8040832
:1000D00071C80408294004082F40040800000000EB
:1000E000873F0408B73F0408D13E04080000000021
:1000F0000000000000000000000000003D72040845
:100100000000000071C804081140040871C8040808
:1001100000000000000000000000000000000000DF
:100120004D7204085D7204086D7204087D72040843
:100130008D720408000000000000000000000000B4
:10014000000000000000000000000000C53E0408A0
:100150009D720408AD720408BD720408354004089D
:10016000534004085940040800000000000000004B
:10017000000000000000000000000000000000007F
:100180000000000071C8040800000000000000002A
:1001900071C8040871C804088378C27843EA02224F
:1001A0004378007843EA022240EA022070470B0AB3
:1001B000017043700B0C090E8370C1707047036AA5
:1001C0000239023B994204D2C289436B02FB0130DF
:1001D000704700207047002310B504461846C2013E
:1001E000E15C42EA5002013351FA82F20B2BD0B2A9
:1001F000F5D110BD37B50D460446B8B10368ABB1B3
:100200005A799AB181885A8991420FD1186806218A
:100210000DF1070202F016FB40B99DF8070010F03F
:10022000010003D123682B6003B030BD09200023F7
:10023000F9E738B50368044618785D1C20B140F230
:10024000B51153F02FFB08B1256038BD4FF0FF30DA
:1002500038BDCA7E8B7E032843EA022305D1487D40
:100260000A7D42EA002243EA024318467047C2F37D
:1002700007238A76CB760378032B03D1120C0A75F9
:10028000120A4A75704770B5C5790446E5B100F1A8
:100290003C0631460068A26B012302F0BEFA054617
:1002A00080B9A36BE16A626AE071591A91420BD27C
:1002B000A179022908D11A4420683146012302F0AD
:1002C000ACFA01E0012070BD284670BD38B5836BE3
:1002D000994205460C4612D0FFF7D5FF80B9224659
:1002E000286805F13C01012302F088FA002818BFB4
:1002F0004FF0FF340CBF00200120AC6338BD00205C
:1003000038BD0000002310B5C3714FF0FF33836385
:100310000446FFF7DBFF20BB94F83A3294F83B2207
:1003200043EA0222114B12B29A421CD194F83C309B
:10033000EB2B03D01833DBB2012B10D804F1720081
:100340000B4903223FF076F908B9002010BD04F1F3
:100350008E00084905223FF06DF90028F5D00220F3
:1003600010BD042010BD032010BD00BF55AAFFFF23
:10037000269106082A9106082DE9F047437986B0B0
:10038000044601F0FE0593B1062100680DF1070255
:1003900002F058FA9DF80730D90708D4002D00F074
:1003A000278113F0040F0CBF00200A2025E1002351
:1003B00063710DF107022068052102F043FA9DF8F0
:1003C0000730DA0700F1168115B15B0700F11481DF
:1003D00020460021FFF796FF022803D104F20226EF
:1003E00000250BE0012825D82579002DF6D129E03C
:1003F00002AF1036E8510435102D07D016F8040C62
:100400000028F5D03046FFF7C7FEF1E7267906B1A0
:10041000013E57F8265025B120462946FFF772FFC6
:1004200000E00320237933B901280BD90136032ECC
:10043000EFD900E00025042800F0D880012801D978
:100440000D20DAE094F8482094F8473043EA02237C
:10045000B3F5007FF4D194F8539094F8523053EAF6
:10046000092904D104F16000FFF796FE814694F853
:100470004CA0C4F824900AF1FF33DBB2012B84F8BE
:1004800006A0DDD894F84960E681002ED8D0731E0E
:100490003342D5D194F84E8094F84D3043EA082881
:1004A00018F00F0FA4F80C80CAD194F8500094F8FB
:1004B0004F3053EA002003D104F15C00FFF76CFEDB
:1004C00094F84B2094F84A3053EA0222B8D00AFB41
:1004D00009FA02EB181353449842B1D3C71AB7FB79
:1004E000F6F7002FACD046498F42A9D84FF6F571E8
:1004F0008F4206D840F6F576B74294BF0126022611
:1005000000E0032602372A442B44032E2762A5620B
:10051000E262636310D194F8672094F8663053EA7E
:1005200002238DD1B8F1000F8AD104F16800FFF7E2
:1005300033FEBF0020630EE0B8F1000F80D05244BC
:10054000022E226301D17F0005E003237B4307F0E5
:10055000010707EB530707F2FF17B9EB572FFFF41B
:100560006FAF4FF0FF33A3616361032E4FF0800341
:1005700023722FD194F86D2094F86C3043EA022353
:10058000012B27D12046691CFFF7A0FE10BB94F871
:100590003A3294F83B22207243EA0222194B12B2FB
:1005A0009A4217D104F13C00FFF7F6FD164B984232
:1005B00010D104F50870FFF7EFFD144B984209D1F4
:1005C00004F50970FFF7E8FDA06104F50A70FFF774
:1005D000E3FD60610E4A6671138801339BB213809C
:1005E00063810C4B00202361E06106E0012004E000
:1005F000284602E0032000E00A2006B0BDE8F087AC
:10060000F5FFFF0F55AAFFFF52526141727241611F
:10061000685A00206A5A002001292DE9F84304464F
:100620000E4617466FD9036A99426CD24379022B62
:100630003DD0032B4DD0012B65D101EB5108C16A90
:1006400001EB5821FFF742FE054600285CD108F176
:10065000010916F00106C8F3080804EB0803FAB212
:1006600006D093F83C1001F00F0141EA0212D2B219
:10067000E16A83F83C200123E371204601EB592114
:10068000FFF724FE054600283ED1C9F3080904EB14
:10069000090316B1C7F3071706E093F83C20C7F328
:1006A000032722F00F02174383F83C7028E0C16A49
:1006B00001EB1621FFF70AFE054628BB760006F47B
:1006C000FF76A31983F83C70C7F3072783F83D70C2
:1006D00016E0C16A01EBD611FFF7F8FD054698B99F
:1006E000B60006F4FE7626443C363046FFF754FD4D
:1006F00027F0704700F0704139433046FFF757FD4F
:100700000123E37100E002252846BDE8F8830129B2
:10071000F8B504460D4653D9036A994250D243793D
:10072000022B29D0032B3AD0012B49D101EB5106E2
:10073000C16A01EB5621FFF7C9FD10B14FF0FF3040
:10074000F8BD771CE16AC6F308062644204601EB93
:10075000572196F83C60FFF7B9FD0028EED1C7F3AA
:1007600008073C4494F83C00EC0746EA00204CBFE4
:100770000009C0F30B00F8BDC16A01EB1521FFF7BA
:10078000A5FD0028DAD16D0005F4FF7563192C442E
:1007900093F83C3094F83D0043EA0020F8BDC16A6C
:1007A00001EBD511FFF792FD0028C7D1AD0005F48C
:1007B000FE7560193C30FFF7EFFC20F07040F8BD8B
:1007C0000120F8BDB1F5001F2DE9F04104460D46AA
:1007D000076802D30220BDE8F081CA06FAD1866814
:1007E000216166B97B79022B01D93B6B33B9BB8997
:1007F000B3EB551FEED93B6BA3611AE01E46B7F869
:100800000E804FEA482845450ED331462068FFF751
:100810007EFF431C06461BD00128DBD93B6A984269
:10082000D8D2C8EB0505EEE738463146FFF7C7FCDE
:10083000A061A3696661002BCCD003EB5523C5F3FF
:1008400008052F443C37A361E7610020BDE8F08133
:100850000120BDE8F0812DE9F041804604680F4693
:1008600031B96669A6B1236A9E4228BF012610E00D
:100870002046FFF74CFF012861D9451C03D14FF0FA
:10088000FF30BDE8F081236A984259D33E4600E02C
:100890000126A36913B90020BDE8F081BE4217D13B
:1008A000236AD8F80000751C9D4228BF02252946FE
:1008B000FFF72DFF012842D0411CE0D038B1636919
:1008C000012B05D9226A934238BF1E4600E0A5B924
:1008D0003546236A01359D4202D3012EDBD902251C
:1008E000D8F800002946FFF712FF30B1012826D0C2
:1008F0000130C4D0B542ECD1CDE7204629464FF0B7
:10090000FF32FFF789FEC0B947B9226AA369656162
:10091000023A93420AD8013BA36107E020463946D8
:100920002A46FFF779FE0028EFD006E0237A43F04D
:10093000010323722846BDE8F08101289FD00120E1
:10094000BDE8F0810129F8B507460D46046801D8D5
:100950000220F8BD236A9942FAD232B111462046EC
:100960004FF0FF32FFF758FE08BB38682946FFF703
:10097000CEFE064608B90020F8BD0128E8D0431C89
:1009800014D0204629460022FFF746FE78B9236A94
:10099000A269991E8A4205D20132A261227A42F0EE
:1009A000010222729E42E6D23546DEE70120F8BD02
:1009B000F8B504460E46FFF766FC0546F8B9314621
:1009C0002046FFF7FCFB04F13C070646A0632946DE
:1009D00038464FF400723EF005FEE3899D4204D391
:1009E000E089281A18BF0120F8BD20683946AA19E5
:1009F000012301F012FF0028F2D10135EDE70120BB
:100A0000F8BD2DE9F843076906682037B7F5001FE0
:100A100024BF00238361836904468946002B47D0A5
:100A2000C7F30808B8F1000F3BD141690133836176
:100A300029B9B289B2EB571F33D8816138E0F28906
:100A4000013A12EA57222CD13046FFF760FE012806
:100A5000054602D80220BDE8F883411C02D10120DE
:100A6000BDE8F883336A984215D3B9F1000F02D17B
:100A7000C4F818901CE020466169FFF7ECFE0546BB
:100A8000C8B10128E6D0421CE9D030462946FFF71C
:100A90008FFF0028E3D1656130462946FFF78FFBC1
:100AA000A06146443C362761E6610020BDE8F8833A
:100AB0000420BDE8F8830720BDE8F883F8B50F46A9
:100AC000002104460668FFF77DFEA8B905463046BA
:100AD000A169FFF7FBFB78B9E3691B78E52B00D030
:100AE0001BB90135BD4201D1F8BD054620460121A3
:100AF000FFF787FF0028EAD0042808BF0720F8BDC9
:100B00002DE9F047FF27D0F80080054689463C468E
:100B10000426A969002970D04046FFF7D7FB064696
:100B200000286BD1EB691A78002A6DD0D97AE52AB2
:100B300001F03F01A97157D02E2A55D021F0200095
:100B4000B0F1080CDCF1000050EB0C0048454BD133
:100B50000F293FD1510605D502F0BF042A695F7BFA
:100B6000EA6201E0A2423FD15A7BBA423CD1D97E2F
:100B70009A7ED8F810E042EA012109B2A1BB1A78A6
:100B800022F040020D20013A42430120214E11F88B
:100B900006C003EB0C0696F801A013F80C6046EAB9
:100BA0000A2630B1FF2A1FD82EF8126030460132D3
:100BB00003E04FF6FF7C664516D101310D29E5D1E2
:100BC0001B785E061DD5E0B1FF2A0DD800232EF854
:100BD000123016E024B91846FFF7FDFA874215D007
:100BE0004FF0FF33EB6211E0FF2428460021FFF7AE
:100BF00008FF064600288CD000E03EB10023AB6120
:100C000004E0013CE4B2F0E70426F7E73046BDE833
:100C1000F08700BF74910608C16A4B1C70B504468A
:100C20000568066903D0FFF7CDFD0146B0B9A1699B
:100C30002846FFF74BFB014668B9E369E5221A70C5
:100C40000123EB712369B34208D22046FFF7D9FE96
:100C500001460028EBD0042908BF0221084670BDD8
:100C60002DE9F04F002185B00446D0F800A0FFF731
:100C7000A9FD002840F097804FF0FF334FF0FF08A8
:100C8000E36246465046A169FFF720FB002840F08A
:100C90008A80E5692B78002B7ED0E97AE52B01F07C
:100CA0003F02A2716CD0090702D50F2A68D101E07A
:100CB0000F2A54D194F82B20570665D4580606D530
:100CC00003F0BF06236995F80D80E36201E0B342AB
:100CD00059D16B7B434556D195F81B90AB7EDAF822
:100CE00010B043EA09290FFA89F100294BD12F7876
:100CF00007F03F07013F0D235F43012289462B4B3D
:100D000019F803106B1858786B5C43EA0023AAB1FA
:100D1000FF2F38D81846019352F0D8FD791C0246AF
:100D20003BF817000291039252F0D0FD039A02990A
:100D3000019B824227D11A460F4603E04FF6FF710E
:100D40008B4220D109F10109B9F10D0FD7D12B78D0
:100D5000590625D522B33BF817300BB313E026B95B
:100D60002846FFF738FA804518D094F82B30DA0778
:100D700006D4284604F120010B223EF05BFC90B122
:100D80004FF0FF33E362FF2620460021FFF739FED4
:100D900000283FF477AF06E0042004E0304602E08C
:100DA000013EF6B2F0E705B0BDE8F08F7491060899
:100DB0002DE9F04790F82B20066812F0A00886B0C5
:100DC000044640F0D880316931F8183013B108F189
:100DD0000108F9E7254603AB55F8200F696803C3FE
:100DE000A8681860D3075ED5402384F82B3001270C
:100DF00003AB03CB3269696019889B782860052FA3
:100E00002981AB7215D9901E3B4630F8022F8AB16A
:100E1000102102F0010E0EEB430313F4803F1CBFC0
:100E200083F4883383F0210301394FEA5202F0D171
:100E3000EBE73B46072203F00F0000F130013929B0
:100E400088BF00F13701013A06A810441B0900F8D9
:100E5000131CF0D106A911447E2001F8140C934212
:100E600009D0E95C202906D00133F8E72021E954B4
:100E70000133072B07D8072AF8D806A911440132F5
:100E800011F8141CF3E72046FFF7EAFE20B90137FA
:100E9000642FADD107208DE0042840F08B809DF8B1
:100EA000173084F82B309DF81730980706D508F1D5
:100EB0000C070D23B7FBF3F7013700E001272046AD
:100EC0003946FFF7FBFD002874D1013F55D0236957
:100ED00079012046591AFFF775FC00286AD1284687
:100EE000FFF779F980463046A169FFF7EFF903462D
:100EF000002B5FD1E269D6F810C082F80D800F2078
:100F0000F9B24FF00D0ED072481E0EFB00F01373B5
:100F10009376D3769E464FF6FF794B45DFF89C904B
:100F200018BF3CF810301EF8099002EB090A02F8CD
:100F300009304FEA13298AF801900EF1010E4FF69D
:100F4000FF7918BF0130002B08BF4B46BEF10D0FD3
:100F5000E1D14B4502D03CF810300BB941F04001D3
:100F6000012311702046F3710021FFF74AFD08BBF1
:100F7000013FB8D101E006201CE03046A169FFF72F
:100F8000A5F90746A8B92022E06939463EF02AFBB8
:100F9000E3692A681A606A685A602A891A81AA7AFB
:100FA0009A7294F82B20E36902F018021A73012355
:100FB000F371384606B0BDE8F08700BF74910608AB
:100FC0002DE9F0470027D0F800A08F758369064609
:100FD0000C46002B00F09080C36A013337D0B8462E
:100FE0003D46DAF81030D85B50B3B8F1000F05D1A8
:100FF00000F520539BB2B3F5006F1BD340EA0840C5
:1010000040F2B51152F030FCFF28C5F1FF0908D9B4
:10101000B9F1010F11D96319020A9A75D875022323
:1010200006E050B1B9F1000F09D06319987501239A
:101030001D44002002378046D3E7002500E04D46DE
:10104000B8F1000F18BF002525440023AB7500231D
:101050001A46F069511C825C202A0DD0052A08BF6F
:10106000E522092905D10B2B03D8E0182E2545725E
:101070000133E018013342720B2901D00A46E8E738
:10108000E21800215172A27D0ABB13B12346082148
:1010900012E03F23A375012012E0A2F1410080B2CB
:1010A0002E2A08BF1021192804D8F069007B0142BC
:1010B00018BF20329A7501335A7A181B002AECD1D6
:1010C000204400238375F3691B7B03B96372F369C2
:1010D000DB7A2372F56905F11C00FFF75DF82060EB
:1010E000EA7DAB7D43EA0223E3806A7E2B7E43EAFE
:1010F0000223A380BDE8F087BDE8F087F8B5044679
:10110000FFF7C1F80546002D42D16379032B37D193
:10111000267A012E34D104F13C0729464FF400729F
:1011200038463EF05FFA552384F83A32AA2384F811
:101130003B3252234122722184F83C3084F83D3006
:10114000612384F83E3084F83F2084F8222284F81A
:10115000233284F8201284F8211204F50970A16961
:10116000FFF725F804F50A706169FFF720F8A26A15
:1011700020680132A2633946334601F04EFB2572E6
:10118000002120680A4601F05DFB003018BF0120F5
:10119000F8BD00002DE9F04F0B78D0F800B02F2BF0
:1011A00087B005468A4601D05C2B01D1524602E049
:1011B000DBF81C3008E013782F2B924602F1010275
:1011C000F9D05C2BF7D00023AB609AF800301F2BCE
:1011D00066D8802385F82B3028460021FFF7F2FAE5
:1011E0006CE12F2C1ED05C2C1CD07F2C04D8B54A6F
:1011F00012F8013F002B5AD1FE2F00F2578128F838
:101200001740013705A8FFF714F8421C00F04E8183
:10121000B0F5803F03D3030C28F81730013784B2B0
:101220001F2CDED83E46DDF814A09AF800302F2B94
:1012300040D05C2B3ED01F2C94BF04240024012FEF
:101240003CD1B8F800302E2B40D1002328F81730BD
:10125000BB422CBF20212E21EA1801330B2B82F830
:101260002010F5D144F0200485F82B402846FFF7E4
:10127000F7FC95F82B30002840F00481590700F165
:101280001D81AB79DA0640F113812B699BF80500CB
:10129000C3F308030BEB03013C31FEF7DAFFA86050
:1012A0002B68CDF814A0D3F810800027AAE7A3423A
:1012B0009ED1FBE00AF101030593B4E7022F04D1AC
:1012C000B8F802302E2B01D1BBE73E4608EB4707AA
:1012D00004E037F8023D202B03D1013E002EF8D167
:1012E00001E02E2BF9D04FF0000C08EB460328F854
:1012F00016C0002E00F0DA8038F81C20202A02D117
:101300000CF1010CF8E7BCF1000F01D12E2A05D138
:1013100044F00304E4B201E0013E03D033F8022DAF
:101320002E2AF9D105F1200020210B22CDF804C08E
:101330004FF000093EF056F9DDF804C008234F468F
:1013400038F81C000CF10102002877D0202804D0C6
:101350002E2807D1B24200F0AD8044F00304E4B27D
:101360009446EDE7994502D2B24214D1A2E00B2B8C
:1013700004D144F00304E4B20B235FE0B24203D093
:1013800044F00304E4B259D8BF00FFB232460B2345
:101390004FF00809E4E77F282AD944F0020C5FFAED
:1013A0008CFC40F2B51103920293CDF804C052F0C8
:1013B0005BFA10F0800F039A029BDDF804C005D0A1
:1013C00000F07F0040496446085C11E0FF2810D916
:1013D000591E894504D344F00304E4B29946BFE79B
:1013E00005EB0901040A81F8204009F101091DE01B
:1013F000A44628B1354C14F8011F39B18142FAD105
:101400004CF0030C5FFA8CFC5F200FE0A0F141016F
:1014100089B2192901D847F00207A0F1610189B208
:10142000192903D8203847F0010780B205EB0901DC
:10143000644681F8200009F1010991E795F8202020
:10144000E52A04BF052285F82020082B04BFBF0031
:10145000FFB207F00C030C2B03D007F00303032BA0
:1014600002D144F00204E4B2A3073FF5FDAEFE074B
:1014700044BF44F01004E4B2780744BF44F00804C9
:10148000E4B2F1E6042819D113F0200F03F00400B0
:1014900007D000283FF404AF802385F82B300020CC
:1014A0000CE0002814BF0420052007E0062005E01A
:1014B000052003E00B2B7FF467AF5AE707B0BDE8C8
:1014C000F08F00BF2F91060890910608389106080A
:1014D00000214171FEF750BF2DE9F04705468CB061
:1014E000914698460C46002900F0B48003F03F0670
:1014F0003146FEF741FF002840F0B7800CAF684648
:10150000494647F8305DFFF745FE28B99DF92B2085
:10151000002AB4BF0620002018F01C0F49D040B1AB
:10152000042802D16846FFF743FC46F0080650B194
:101530009BE09DF8063013F0110F40F0918018F0F9
:10154000040F40F0898031073ED5DDF81CA0A94684
:10155000514619F8050FFEF77CFE80464AF008FC5C
:1015600001460AF10E00FEF722FE079B2022DA72E6
:10157000484600220799FEF77AFE079B00221A7759
:101580005A779A77DA770123EB71B8F1000F1BD005
:1015900068464146D5F83890FFF7D4F9002864D161
:1015A00028464946FEF792FE08F1FF336B6158B1B9
:1015B0005BE0002859D19DF80630DA064ED418F0C9
:1015C000020F01D0DB074BD4AB6B3707079F2362B9
:1015D00067626879394648BF46F04006FEF739FE33
:1015E000A060804607F11C00FEF7D6FD6B89E06025
:1015F0000746A380B0064FF000032560267463748D
:10160000E36163612ED56FB3EE8967617602B742FD
:1016100010D941462068FFF77AF80128804604D99E
:10162000B0F1FF314842484100E00220BF1B0028D2
:10163000EDD000E00020C4F81880B0B9C7F308036B
:1016400083B128464146FEF7BAFD68B100EB572743
:10165000E76107E009200AE0082006E0042004E032
:10166000072002E0002002E00220002323600CB0EB
:10167000BDE8F0872DE9F74F984600230F46C8F8DC
:10168000003001A904461646FEF7B4FD002840F0DC
:101690008180607C00287DD1237CDB0779D5E168DF
:1016A0006369CD1AAE4238BF3546002D6FD06269EE
:1016B000C2F30803002B47D1019BB3F80EB00BF126
:1016C000FF3B1BEA522B0ED10AB9A06803E0206849
:1016D000A169FFF71CF801280CD9461C02D1012092
:1016E000607457E0A061DDF804A0A1695046FEF7E0
:1016F00066FD08B90220F3E76E0A00EB0B0921D062
:10170000BAF80E30DAF8000006EB0B029A4288BFF6
:10171000CBEB030639464A46334601F06FF8002802
:10172000DDD10199CB795BB1886BC9EB0000B04288
:1017300006D207EB40203C314FF400723DF00EFF23
:10174000760219E0C4F81C9066690198E169C6F355
:101750000806C6F50076B54238BF2E46FEF7B6FD40
:101760000028BCD16369C3F30802019B991838466D
:101770003C3132463DF0F2FED8F800303344C8F830
:1017800000306369AD1B37441E4466618DE728460F
:1017900000E0072003B0BDE8F08F2DE9F74F994630
:1017A00000230F46C9F8003001A904461546FEF78C
:1017B00021FD002840F0AE80607C002840F0AA8027
:1017C000237C990740F1A5806369DD4251D3DD4355
:1017D0004FE06369C3F30802002A7CD1019AB2F892
:1017E0000EA00AF1FF3A1AEA532A45D00198E3699C
:1017F000826B9A425BD0DDF804B0A1695846FEF7CF
:10180000DEFC002858D06E0A00EB0A0856D0BBF860
:101810000E30DBF8000006EB0A029A4288BFCAEBE2
:10182000030639464246334600F0F7FF8246002859
:101830005ED10198816BC8EB0101B14209D23C3005
:1018400007EB41214FF400723DF088FE019B83F8C5
:1018500007A07602D9F800303344C9F80030636934
:10186000AD1B37441E44E3686661B3422CBFE3609E
:10187000E660002DADD10AE01BB9A16869B9204628
:1018800001E0A1692046FEF7E6FF014628B9237C66
:1018900043F04003237400203CE001290CD04A1C93
:1018A00026D0A368A161002BA0D1A1609EE7FEF71E
:1018B000EAFC00289FD01BE002201AE06269E3687E
:1018C0009A4206D35846FEF7DEFC88B9019BC3F85E
:1018D0003880C4F81C8066690198E169C6F308067F
:1018E000C6F50076B54238BF2E46FEF7EFFC10B1C4
:1018F000012060740EE06369C3F30802019B98182D
:101900003C30324639463DF029FE019B0122DA7116
:10191000A0E7072003B0BDE8F08FF7B501A90446A2
:10192000FEF768FC054660BB237C580629D54AF0C3
:101930001FFA216A07460198FEF7C8FC054600BB5E
:10194000666AF37A43F02003F3722068A2680530D8
:101950003146FEF78CFC06F11C00E168FEF727FC1F
:1019600006F116003946FEF722FC0198B5740123F2
:10197000F574C371FFF7C2FB237C23F040030546D7
:101980002374284603B0F0BD13B50446FFF7C5FF26
:1019900028B9204601A9FEF72DFC00B9206002B04D
:1019A00010BD70B50E468CB000210546FEF7E4FC74
:1019B0000446F0B90CA8314640F8305D6846FFF7A0
:1019C000E9FB044680B99DF92B30002B02DA029B1B
:1019D000EB610EE09DF80630DE0609D568790799BF
:1019E000FEF737FCE86104E0042808BF052400E0A6
:1019F000052420460CB070BD2DE9F0470E460021AD
:101A0000D2B0317007469146FEF7B6FC80460028FA
:101A100069D1FB69009702934D46DDF808A0BAF141
:101A2000000F4CD068462021FEF7CCFE044600286B
:101A300058D138460699FEF749FC0446002851D192
:101A400007997879FEF705FC214602906846FEF773
:101A5000B9FE0446002845D168460021FFF750F83A
:101A6000044680B978790799FEF7F3FB824568460A
:101A700003D10CA9FFF7A4FA09E02146FEF7C1FF44
:101A800004460028E8D0042C08BF02242AE00CAB4E
:101A90002344621C9B7D0BB11446F8E79542234614
:101AA0001FD33CB1013C0CA92144EA1A3244897D80
:101AB0001155F6E7DB431D442F237355ADE74D4524
:101AC00002D1013D2F237355334601335A1912F8C1
:101AD000012C03F8012C9A1B2A444A45F5D31E46D3
:101AE00001E01124A04600234046337052B0BDE807
:101AF000F08773B50E4601A90446FEF77BFB00286C
:101B000072D1607C00286FD1E568AE4201D83546BD
:101B100002E0237C9B07FAD40022636962610DB95D
:101B2000002550E0019AD68976026BB1013B691E0F
:101B3000B1FBF6F1B3FBF6F2914205D372421340CA
:101B40006361ED1AA1690BE0A16841B92046FEF777
:101B500082FE0128014631D001301CD0A160A16174
:101B60000029DDD006E0012928D9019B1B6A994292
:101B700024D2A161B54216D9636933446361237CE1
:101B80009A07C6EB050508D52046FEF764FE014618
:101B900040B14B1CE7D1012011E02068FEF7B7FDF2
:101BA0000146F6E7054663692B446361C5F3080304
:101BB000002BB5D00198FEF702FB10B9022060742B
:101BC00012E000EB55256069E368984204D9237C54
:101BD000E06043F040032374C0F3080020B1E369E0
:101BE0009D4218BFE561002002B070BD70B505468A
:101BF00016460C4619B30021FEF7BEFBE0B925607E
:101C000020463146FFF7C6FA88B994F92B30002BED
:101C100007DBA379DA060ED56879E169FEF719FBCF
:101C2000A0606B892046A3800021FEF7CBFD04282D
:101C300001D030B100E005200023236070BD0920F1
:101C400070BD70BD13B501A90446FEF7D3FA00B903
:101C5000206002B010BD73B50E4601A90546FEF71F
:101C6000C9FA0446C0B92846214616B9FEF7AAFDAE
:101C700011E0FEF745FF10F0FB0F0CD1284631466E
:101C8000FFF79EF921462846FEF7BBFE042814BF45
:101C90000446002400E00446204602B070BD70B542
:101CA0000E468CB0002104461546FEF765FB0094F5
:101CB000044680B968463146FFF76CFA044650B9CD
:101CC0009DF92B30002B05DB2DB168462946FFF727
:101CD00077F900E0062420460CB070BD2DE9F84FDE
:101CE0008A4600210446FEF747FB0646002855D1E8
:101CF000D4F82080A369A8F10202934202D8CAF85E
:101D000000304BE06379012B10D10227054639469C
:101D10002046FEF7FCFC411C34D0012834D000B929
:101D20000135236A01379F42F1D330E0D4F82C907B
:101D3000074605463FB92046494609F1010BFEF723
:101D4000C5FA18BBD9466379022B07F138000AD1CE
:101D5000E319204493F83C30427953EA022208BF49
:101D60000135023708E020440430FEF715FA20F070
:101D7000704000B901350437B8F10108C7F308070E
:101D8000D8D104E0012602E0022600E00646CAF8A7
:101D90000050237AA56143F0010323723046BDE869
:101DA000F88F2DE9F0410F4698B002210546FEF765
:101DB000E3FA0446002846D118AE6846394646F88C
:101DC000605DFFF7E7F9044600283CD19DF82B3011
:101DD0009A0607D41F0605D49DF8068018F0010F57
:101DE00030D101E006242EE068790799FEF731FA38
:101DF00018F0100F074612D0EB699F4222D02146FF
:101E00000CA80C950E97FEF7DDFC0446D8B92146C8
:101E10000CA8FEF775FE0446A0B1042813D168464D
:101E2000FEF7FAFE044670B927B92846FFF766F9AF
:101E3000044608E0224668463946FEF783FD04461C
:101E400008B9F2E70724204618B0BDE8F0812DE973
:101E5000F04F0E4691B002210446FEF78DFA05467A
:101E600000287FD110AF314647F8304D3846FFF794
:101E700091F9002872D0042873D19DF83B30980660
:101E80006ED40DF140086846294648F8404DFEF7EB
:101E9000E2FC064640B1012E04D0B6F1FF314D42BE
:101EA0004D4102E0022500E0072549F061FF82462E
:101EB000002D4DD120463146FEF77AFD054600281B
:101EC00046D104F13C050B22202128463DF08AFB37
:101ED0002E2384F83C30102384F8473004F152005C
:101EE000514604F10509FEF762F929463246484693
:101EF000FEF7BDF904F15C022B46114653F8040BC2
:101F0000934241F8040BF9D12E2284F85D20484613
:101F10001946069A4FF0010BFEF7A9F984F807B0AD
:101F20003846FEF745FF054690B90B9851461630E6
:101F3000FEF73DF9484632460B99FEF798F90B9BA0
:101F40001022DA72204684F807B0FFF7D7F808E0CD
:101F5000684631460022FEF7F5FC03E0082000E069
:101F600006200546284611B0BDE8F08F2DE9F04364
:101F70000C46A1B0022106469146FEF7FDF9002865
:101F80007FD120AF214647F8606D3846FFF702F950
:101F9000002876D19DF84B3013F0A00F01D0062019
:101FA0006FE00F9B6A4603F12005E8461868596800
:101FB000144603C40833AB422246F7D13D460FCD49
:101FC00014AC0FC40FCD0FC495E80F0084E80F00C8
:101FD00014A84946FFF7DEF840B90A9B169A9A42C0
:101FE0004CD10C9B189A9A4248D101E0042848D160
:101FF00014A8FEF7DDFE002843D11B9908F10D035C
:1020000001F10D0208F11D0853F8040B434542F895
:10201000040BF9D1188810809B7893709DF80B30D1
:10202000DA0658BF43F020030124CB72F471CB7A57
:10203000DD061BD5169B0A9A9A4217D07079FEF7D7
:1020400008F901463046FEF7BAF80146C0B13046FD
:10205000FEF73CF9A8B996F85D302E2B06D1701D1D
:1020600006F15C01169AFEF702F9F4713846FEF7A4
:10207000D3FD30B93046FFF741F802E0082000E018
:10208000022021B0BDE8F08370B594B005460191FF
:102090000221FEF771F9044600285DD102AE3046F8
:1020A00020210B223DF09EFA019B1B781F2B17D994
:1020B00001A8FEF7BEF8B0F5803F01D3062060E02E
:1020C00051F004FC40F2B51151F0CEFB0028F5D0E0
:1020D0002D4A12F8013F002B40D08342F9D1EDE7A1
:1020E0009DF80830E52BE9D02CB1631EF25C202A64
:1020F00001D11C46F8E7002108A808950A91FEF7CF
:1021000061FB00283DD108A80121FEF7F9FC20B9A8
:102110000F9A9CB9E523137018E0042831D1DCB183
:10212000012108A8FEF7CAFC014650BB20220F98E7
:102130003DF058FA0F9B0822DA720F9A334603CB10
:102140001060516019889B78118193720123EB71A3
:102150002846FEF7D3FF14E0204612E0FF2807D8F8
:102160000A2CABD814AB2344013403F8480C9BE78A
:10217000092CA3D814AB2344020A03F8482C0134D9
:10218000F0E714B070BD00BF0F9206082DE9F04FC4
:102190001C4600238FB043710768007904910390B7
:1021A0001646384605210DF12F02189D00F04AFB16
:1021B0009DF82F30D80700F10583590700F10483FB
:1021C000384603210CAA00F03DFB30B90C9B5A1E87
:1021D000B2F5004F01D21A4201D001230C9336B15F
:1021E000AC4BA6F500729A4201D91320FCE2721E94
:1021F0003240FAD1002C00F0E9826D0A069500F019
:10220000E582039D38462DB32146012300F0F6FAFE
:10221000002840F0C58194F8FE3194F8FF2143EA8C
:1022200002229D4B12B29A4201D00E20DCE20399A9
:1022300004EB011505F5D7752B79002BF5D005F1C9
:102240000800FDF7A9FF814605F10C00FDF7A4FF8A
:102250000D9014E001210DAA00F0F4FA002840F0DE
:102260009F81049D0D9B15F0080F0CBF4FF03F0997
:102270004FF000094B45D8D3C9EB03030D93DDF8AC
:1022800034A0BAF1150FD0D9720A802AADD8DDF882
:10229000108008F0020303F0FF0033B108F00703D9
:1022A000022B09D018F0010F06D0DDF810C01CF089
:1022B000010F9AD0022500E003254FEA1A33089354
:1022C0000C9B4FEA5A4103F1FF38032DC3F1000381
:1022D0000791CDF82480009379D152B96F49012636
:1022E00031F8023F33B1DDF81CC0634502D87600F7
:1022F000F6E71646BAFBF6F34FEA83086849A3F5FA
:102300007F43F63B08F207288B424FEA58288CD8C7
:102310004FF0000CCDF808C04FF0200B1CE0089DDA
:10232000AB4204D8760031F8023F002BF7D1BAFB5C
:10233000F6F840F6F57398454FD908F102084FEAD0
:102340004808022508F2FF184FF0200C4FEA5828E1
:10235000CDF808C04FF0010B029B09990BEB090C5B
:1023600043446344CDF804C0DDF800C0194401EAD9
:102370000C01032DC3EB010139D1DDF804C08C44FD
:102380008B44CDF804C03101C9EB01010B449A45DF
:10239000FFF44BAFCBEB0A03DDF808C0C8EB030337
:1023A000CCEB0303B3FBF6F3032D059321D0022DF1
:1023B0003AD1DDF814C04FF6F5739C4526D9002AB2
:1023C00040F00D827600402E00F20282324612B9B1
:1023D00034490126A7E71646A9E7032303FB08F8BB
:1023E00008F101084FEA580898440125AAE78844F3
:1023F000C9E7DDF814C04FF6F5739C451FD8002AD5
:102400007FF413AF72083FF410AF66E7DDF814C035
:1024100040F6F5739C4512D8002A7FF406AF72008F
:10242000802A3FF602AFD2E7012D07D1DDF814C0B4
:1024300040F6F5739C453FF6F8AE00E000254FF4FA
:102440000072204600213DF0CDF8174B84F80EB005
:102450001A68667322605A6862601A899B7A2281C0
:10246000A37202220023E3722273CBF3072B012213
:102470006374032D18BF0223BAF5803F84F80FB0B0
:102480002274A37412D284F813A0CAF3072A84F822
:1024900014A010E000FEFF0055AAFFFF16910608E9
:1024A000FFFFFE0F809106084091060804F120000E
:1024B0005146FDF77CFEF82363753F2323764FF0EA
:1024C000000AFF2384F819A0A37684F81BA004F166
:1024D0001C004946FDF76BFE032D30D149F048FC46
:1024E000014604F14300FDF762FE414604F1240079
:1024F000FDF75DFE022384F82C30012384F8303090
:10250000062384F83230802384F84030292384F86D
:102510004230B74B84F82DA084F82EA084F82FA069
:1025200084F831A084F833A004F1470203F11001CC
:1025300053F8040B8B4242F8040BF9D11CE049F02C
:1025400017FC014604F12700FDF731FEC8F307230D
:10255000E375802384F82430292384F82630A54BA2
:1025600084F8168004F12B0203F1100153F8040BD8
:102570008B4242F8040BF9D119889B7811804FF0F7
:10258000550B6FF055019370384684F8FF1184F8AD
:10259000FEB121464A46012300F03FF9824608B1C8
:1025A000012021E1032D41D10123214609F1060239
:1025B000384600F032F951464FF4007220463DF0A3
:1025C00011F85223DDF814C0237041227221637088
:1025D0006123A370E27084F8E41184F8E51184F8B3
:1025E000E6210CF1FF3184F8E73104F5F470FDF7D2
:1025F000DEFD02236FF0550184F8EC3184F8FF1101
:1026000009F107022146012384F8EDA184F8EEA127
:1026100084F8EFA184F8FEB1384600F0FEF83846A1
:10262000214609F10102012300F0F7F8DDF818C096
:10263000204600214FEA4C223CF0D4FF032D0FD15D
:10264000F8232370FF236370A370E3702371637119
:10265000A371E37123726372A3720F23E37207E025
:102660006549012D204618BF6FF00701FDF79FFD5A
:10267000DDF818A0019AD04538BFC2462146384639
:10268000534600F0CAF80146002889D120464FF48D
:1026900000723CF0A7FFDDF804C0B8EB0A08D44490
:1026A000CDF804C0E4D1DDF80880032D08BFB046A2
:1026B000CDF80880029EDDF818C0019A664528BF53
:1026C000664638462146334600F0A7F800287FF4D6
:1026D00067AFDDF80480DDF808C0B044BCEB060C41
:1026E000CDF80480CDF808C0E4D1032D08D00D9BAF
:1026F000B3F5803F06D2022D14BF0125042502E068
:102700000C2500E00625039991B1002238462146A8
:10271000012300F073F8024600287FF441AF0399CB
:1027200004EB0113384683F8B2512146012344E0FB
:10273000DDF8108018F0080F08D0002138460A464E
:1027400000F080F8003018BF01204DE003994FF4ED
:10275000007220463CF046FF552384F8FE31AA2340
:1027600084F8FF310D9BDDF80CC084F8C25143F6AC
:10277000C1624B44B3FBF2F3FE2284F8C3219A08F2
:1027800042F03F02012684F8C42184F8C53184F860
:10279000BEC184F8C1C104F5E370494684F8BF6145
:1027A00084F8C061FDF703FD04F5E5700D99FDF7B0
:1027B000FEFC039A38462146334600F02EF80028E6
:1027C000BBD0EDE603200FE00A200DE011200BE066
:1027D00008B1032582E5802E3FF627ADF6E50028F7
:1027E0003FF423AD032578E50FB0BDE8F08F00BFBF
:1027F0004C91060860910608F8FFFF0010B50C46E2
:1028000048B1114604301A4623463CF0A3F9003083
:1028100018BF012010BD042010BD10B50C4660B1DA
:10282000114604301A4623463CF0BEF910F11E0F43
:1028300005D0003018BF012010BD042010BD0220BB
:1028400010BD000070B50E4614460546002833D072
:1028500001F00703194AD15C21B1002204303CF099
:10286000D3F900E00620062E26D8DFE806F0230480
:102870000814251717002AF091FE20601AE0062898
:1028800003D14FF40073238002E02AF087FE2080FA
:102890002388AB600EE0012323600BE0062801D003
:1028A000400805D12B6A002B0CBF0423002300E055
:1028B00001232370002070BD042070BDD0FC0508EA
:1028C000086833F0B6B9000037B51C46043001ABD8
:1028D0001546FEF762FF10B1054B1B5C03E0019843
:1028E000A84203D01C2323604FF0FF3003B030BD5B
:1028F0008CFD050813B51C46043001ABFEF7BAFE8B
:1029000028B1044B1B5C4FF0FF30236000E00198BE
:1029100002B010BD8CFD05082DE9F84381465068D2
:102920000F46904630F0ECFC0024013810F8013FCF
:1029300013B3722B12D008D8612B18D0622B19D088
:102940002B2BF3D144F00304F0E7772B09D0782B3D
:102950000AD01B49742B08BF0F46E7E744F0010477
:10296000E4E744F00A04E1E744F00604DEE744F05B
:102970001204DBE7134FD9E72C201DF0A1FB06461C
:10298000054646F8047BD8F8000030F0B9FC314623
:102990000246E3B209F14400FEF79EFD074630B15E
:1029A00028461DF0A7FB084BD85D29F0D9FFE306A8
:1029B00003D530462969FFF79CF82846BDE8F8831F
:1029C000F0FC0508B0FD05088CFD050830B505468E
:1029D00087B0084803AC00900194084611461A4697
:1029E00003232AF0C1FA294622460020FFF794FF6C
:1029F00007B030BDD8FC05081FB50623019102922F
:102A00000349039301AAFFF787FF05B05DF804FBB4
:102A1000F0FC050870B5054608460C462AF03AFD5C
:102A20002346024602492846BDE8704000F0B2BF86
:102A3000ECFD0508022970B5044615461E4614D162
:102A40005368012B05D0022B06D05BB90430116806
:102A500006E01168836901E011680369201D1944CB
:102A6000FFF747F8A3692B6005E0012905D1043081
:102A7000FEF753FF50B9002070BD042909D1436807
:102A8000002BF8D00430FEF77FFFF3E7034B1B5C0D
:102A900000E0162333604FF0FF3070BD8CFD050859
:102AA0002DE9F04F2DED028B83B00629B0EE408A60
:102AB00081460E4692461D469DF838700FD8012972
:102AC00004D93F23037000F1010900E011B1002394
:102AD00089F80030012E94BF00200120E7E110EEBC
:102AE000100A00280ADA3DF0E3FC38B12D2309F181
:102AF000010489F80030B1EE488A06E027B109F1F7
:102B0000010489F8007000E04C46B0EE480A3DF040
:102B1000CFFC0AF0200801285FFA88F70AD187F075
:102B20004903237087F04E0387F046076370E01C6B
:102B3000A7700EE0B0EE480A3DF0BAFC70B9002F65
:102B400014BF6E234E2387F0410723706770E01C8B
:102B5000A37000230370C9EB0000A8E14AF0200233
:102B600035EA250528BF0625672A02D1002D08BFB2
:102B70000125C4EB0903711E194418EE103A002B0D
:102B800018D1662A0AD16B1C8B42A8BF8D1E002764
:102B90006E1C4FF0660C39463B46D0E06B1D8B42F5
:102BA000A8BF8D1F652A94464FF0000600F0B9803B
:102BB0003746B7E0B3F17E5F69D2DFEDBF7ABF4839
:102BC000BF4EB4EEE78AF1EE10FAACBF4FF0310C15
:102BD0004FF0300C00F1180A2027002310ED017A85
:102BE000B4EEC87AF1EE10FA04DD16ED017A28EEA3
:102BF000078A3B44043050454FEA670706F1040654
:102C0000ECD118EE100AB0F17E5F10D2B4EEE78A74
:102C1000F1EE10FA06DB002B0CBF2B272D27B7EEA9
:102C2000008A05E0F2EE047A28EE278A01332D2788
:102C3000662A03D0672A23D1042B21DC672A04BF2C
:102C400003F1FF302D18681C8842A8BF8D1E84F840
:102C500000C03DB901342E462F464FF0FF314FF0F2
:102C6000660C7FE02E2161702E460234013B5CD061
:102C700026B1302104F8011B013EF7E7374655E045
:102C8000481FA8425EDC672A55D08D1F54E08C484F
:102C90008A4E00F1180C2027002350ED017AF4EE43
:102CA000C87AF1EE10FA04D856ED017A28EE278A98
:102CB0003B44043060454FEA670706F10406ECD157
:102CC000FDEEC87A17EE900A092804DDDFED7D7A63
:102CD00028EE278A0133662A0AD18B420ADA58196C
:102CE0000130884218DBC91A8D1E15D54D1E13E020
:102CF000652A05D1481FA84200F3C9808D1FC6E090
:102D0000672A40F0CD80281D884200DB4D1FAB4272
:102D100080F2C380D9430D44EE18013619460027CE
:102D200006E02B273146334609E01F464FF0FF31BE
:102D30004FF0660C03E0054694460026314625EA2E
:102D4000E57502E0002694463146BCF1650F01D1DD
:102D50006E1C07E0BCF1670F04D10DB12E4601E0F7
:102D600001263546002001900198B04225DAFDEE9B
:102D7000C87A04F1010A17EE900A0028A4BF17EEE2
:102D8000900A00F1300B0198B8BF4FF0300B814230
:102D900084F800B0544605D125B12E248AF80040AD
:102DA0000AF10104F8EEE77A019838EE678AB2EE8C
:102DB000047A28EE078A0130D5E7662A01D1B342AA
:102DC0004CDCF1EE047AB4EEE78AF1EE10FA38DB6F
:102DD000611E08782E2801F1FF3601D13146F8E74F
:102DE000A0F1300A5FFA8AFABAF1090F01D901316C
:102DF00008E0392802D00130087003E0302089450E
:102E00007070EBD1087830281BD14E782E2E0DD162
:102E1000BCF1660F0AD02D2F0E70487004D1013B13
:102E200014BF2D272B2702E0013300E00134204698
:102E3000884204D910F8016C00F80169F8E73120E4
:102E40000870672A0AD14DB114F8012C302A01D13B
:102E5000013CF9E72E2A08BF04F1FF3497B10A229A
:102E600093FBF2F191FBF2F002FB101002FB113325
:102E700048F045083030303384F800806770A07027
:102E8000E370043400232370C9EB04000FE0002634
:102E90002B2731464FF0650C51E74FF0670C03E0EC
:102EA000662A94463FF438AF00262B2746E703B046
:102EB000BDEC028BBDE8F08FF8FF7F3FFC9C05085E
:102EC000E49C0508CDCCCC3D08B504460B4631B199
:102ED000044A096802609A6B00232CF051FB2046DB
:102EE0001DF0BAF81CB105082DE9FF479A4601927A
:102EF00046180AB905460AE0023A222AFAD93848A1
:102F000029F06CFB207801351EF014FA18B1B54297
:102F10002C46F7D30CE023782B2B02D12C46074606
:102F200007E02D2B08BF2C4614BF0027012700E027
:102F300000272046311B01AA28F039F80444A04696
:102F40000025B04543460ED218F8012BA2F13009F6
:102F5000B9F1090F0CD95F2AF3D042F02009A9F189
:102F60006102192A02D98FB16D420FE0A9F1570908
:102F700001998945F7D2284636F054FEC0B9019B25
:102F800003FB059595EA4503DBD511E06D0045F09F
:102F90000105A34217D01C46B442234606D2187836
:102FA00001341EF0C7F90028F6D10CE013D00AE076
:102FB00004A8019B40F8044D311B3A462DF09AFCC1
:102FC000039B0546E5E707490748019A2CF09CFA60
:102FD0005146FFF779FF284604B0BDE8F08700BFEF
:102FE000109D0508339D050820AC05082DE9F84F14
:102FF0002DED028BDDF83090924698464718054635
:10300000BD422C4680F02D81207801351EF092F9CA
:103010000028F5D123782B2B02D12C46834604E0DF
:103020002D2B0DD12C464FF0010BBD4209D34FF093
:10303000000E25467346704676469FED8B8A64E007
:103040008346237843F02003692B36D1A31C9F428B
:1030500040F2D180637843F020036E2B40F0CB80A8
:10306000A37843F02003662B40F0C580E31D9F4208
:1030700004F1030540F2BB80E37843F02003692BA1
:1030800040F0B580237943F020036E2B40F0AF80F1
:10309000637943F02003692B40F0A980A37943F0C2
:1030A0002003742B40F0A380E37943F02003792BB5
:1030B00040F09D8004F1080599E06E2BB7D1A31C68
:1030C0009F4240F29880637843F02003612B40F0E8
:1030D0009280A37843F020036E2B40F08C80E51C97
:1030E00000269FED628A8AE02978A1F1300CBCF1BC
:1030F000090F05F1010225D8022E09D15C498B4246
:1031000002DC0A2101FB03C31546BD42ECD345E0B6
:10311000DFED587AB4EEE78AF1EE10FA0ED507EE3D
:1031200010CAF8EEC77AB2EE047AE8EE077A012EFA
:10313000B0EE678A2BD10EF1FF3EE5E74EBB0EF1F4
:10314000010EE1E716B92E2902D122E0022E13D09A
:1031500041F0200CBCF1650F0ED1BA4208D269785B
:103160002B2901D1AA1C03E02D2904BFAA1C012090
:10317000BA426FD00226C7E7BAF1000F04D041F07F
:10318000200CBCF16A0F06D05F2907D1BCE70026EE
:10319000BAE70126B8E71546012600E0002600B18F
:1031A0005B429E441EF1250F05DADFED337A28EEEF
:1031B000278A0EF1250E0EF10903082B0CD8CEF14B
:1031C000000E00EE90EAB2EE040AF8EEE00A3DF0DE
:1031D000B5F988EE008A12E007EE90EAB2EE040A32
:1031E000F8EEE70A3DF0AAF928EE008A07E000268B
:1031F0009FED228A03E09FED1C8A25460026BBF145
:10320000000F01D0B1EE488AA54223D0BD422B4623
:1032100006D2187801351EF08DF80028F6D119E095
:1032200018D126B19FED100AF0EE480A06E0B0EE84
:10323000480AB8F1000F07D0DFED0B0ABDEC028B96
:10324000BDE8F84F2BF0C6B9BDEC028BBDE8F84FD6
:103250002CF0B4BA0A490B482CF0C8F84946FFF7DD
:1032600033FE4FF0000BE2E6000000000000C07FDC
:1032700064666606EC78AD60EA1C08020000807F98
:103280005B9D050820AC05080846114641F0BABC14
:1032900070B5054608460E463CF0E6F9044620B1F6
:1032A00095E80900314622469847204670BD000047
:1032B0002DE9F74F0D9C9146A41A9DF8302012F08D
:1032C000DF0F06468A460AD0284F302A0CAA18BFBC
:1032D000174614BF4FF001084FF0100802E0244FCA
:1032E0004FF0100813F0800205D0022394FBF3F393
:1032F000E51A1C4602E013F0010515D1002C16DD7D
:10330000A346C345B4BFDC46C4466246CDF804C0FC
:1033100096E8090039469847DDF804C0CCEB0B0B62
:10332000BBF1000FEDDC03E02546144600E000246D
:10333000B9F1000F05D096E8090051464A46984772
:103340004C44002D0DDD2C444545B4BFA946C14673
:1033500096E8090039464A46C9EB05059847002D0D
:10336000F2DC204603B0BDE8F08F00BFE38905081A
:10337000F48905082DE9F04389B08046119C109826
:103380009DF84890139F0AB900220DE0002904DA45
:103390002D228DF80F2049420FE0A50701D52B22E1
:1033A00002E06207F0D520228DF80F2029B93023E2
:1033B0008DF81F300DF11F0517E00DF11F02B1FB55
:1033C000F3F603FB1615092DC6BFA0F10A0EAE4495
:1033D00005F1300E82F800E00DF1100E7245314615
:1033E000154602D9013A002EE9D114F040069DF8A5
:1033F0000F300DD0A3B10122CDF8009001924046CC
:103400000DF10F012346FFF753FF013F064608E089
:1034100033B104AA954204D905F8013C013D00E00E
:103420001E4608AB5A1BCDF800900197404629462E
:103430002346FFF73DFF304409B0BDE8F0830000AC
:103440002DE9F04F93B093469DF874201C9C069292
:1034500011F0010F81468A4698461E9D1F9E0CD191
:1034600011F0030F03D109688348814205D050460B
:103470002AF094F8400040F0010A14F0810106D1CE
:10348000069B302B03D1B542B8BF35460E46504699
:103490002DF042F900280AAF0ADBA20701D52B2143
:1034A00002E0630704D520218DF82810791C00E084
:1034B0003946E00625D5BBF1020F07D108464FF08B
:1034C000300E00F802EB08F1010E17E0BBF1080F17
:1034D0000AD1A2054FF03000087045BF08F10E0078
:1034E0004870013102310CE0BBF1100F09D10846E0
:1034F0004FF0300E00F802EB08F1170E81F801E0F2
:103500000146002014F0200F0870C7EB010105915F
:1035100014BF2C210146012E0EABC8BF44F040045D
:103520000B9314F040024FF010030C930D908DF8A4
:10353000270007925FFA88F3CDF800B015D000227B
:1035400001920293039153460BA80CA90DAA2CF0EB
:10355000ADFF03782D2B824611D18DF827300D9BBE
:10356000013B00F1010A0D9309E0029303915346D8
:1035700001970BA80CA90DAA2CF098FF8246012EEA
:103580002FDD0D9B9E42ACBFB4469C46079B33B1DA
:103590009DF827300BB10CF1010C059A9444AC4511
:1035A0000CDA04F00103CCEB050C002B14BFE04651
:1035B0004FF000080CBF6346002302E04FF0000804
:1035C000434624F0010483B120228DE80C00002240
:1035D000134648462949FFF76BFE3023834606937E
:1035E00006E04FF00008C34602E0302206929B46F8
:1035F00063061BD59DF8273053B1002301220093A9
:10360000019248460DF12701FFF752FE013D834428
:10361000059B5BB10023012201920093059A484665
:103620003946FFF745FE059A8344AD1A069B0D9A6D
:10363000012EC8BF35468DE828004846234651462E
:10364000FFF736FE0BEB0004B8F1000F09D0202382
:1036500000228DE80801484608491346FFF728FE76
:1036600004440B980EAB984201D01CF043FD204659
:1036700013B0BDE8F08F00BF14B7050893350608F6
:103680002DE9F0438BB0804690070D4614469946CD
:10369000129E05D412F0040F14BF2023002300E073
:1036A0002B23009320212A4602A8139BFFF7F8F949
:1036B000E10505460DD5431C1F2B0AD80AAA15445F
:1036C000252205F8202C0AAA1A44002102F8201C01
:1036D0001D4614F0400712D09DF808302F2B4FF0F4
:1036E00000030ED8012202A9009301924046FFF781
:1036F000DFFD013E0746013D0DF1090103E002A98E
:1037000001E002A91F46CDF80090019640462A46E6
:103710002346FFF7CDFD38440BB0BDE8F083000031
:103720002DE9F04F824689B0914600240B461D4694
:1037300013F8012B4AB98D420AD96E1A9AE809008A
:10374000324698473444294602E0252AEFD1F2E771
:103750000B78002B00F0158101312023002508464D
:1037600011F8012BAAB12D2A02D145F00105F6E787
:103770002B2A02D145F00205F1E7202A02D145F0BB
:103780000405ECE7212A02D145F00805E7E7302AD5
:1037900001D0002203E045F040051346DFE78046F4
:1037A00010F8011BA1F13006F6B2092E04D80A2642
:1037B00006FB0212303AF2E72E2920D198F80110C8
:1037C0002A2902D04FF0000B08E0D9F800B008F128
:1037D000020809F104062BEAEB7B13E00178A1F162
:1037E0003006F6B2092E804600F1010005D80A26FF
:1037F00006FB0B1BABF1300BF0E74E4602E04E46EA
:103800004FF0FF3B98F800106C2908BF08F1010841
:1038100098F80070002F00F0B480642F62D00ED8AA
:10382000502F7FD005D8A7F14501022940F28880AA
:103830009DE0622F12D022D8582F5FD097E0712FD1
:1038400028D004D8672F7BD9702F6BD08FE0752FCD
:1038500054D0782F52D0732F30D088E03168009345
:1038600006F104090192504611B14849042201E0D1
:10387000474905222B46FFF71BFD04447EE03068D4
:1038800008A906F1040901F8040D019200935046BD
:103890000122EFE73068049207A905931DF054FB5D
:1038A000049A059B0192BBF1FF3F014606F1040912
:1038B00008BFDDF81CB00093504611E0BBF1FF3F9C
:1038C00006F10409366807D13046049205933BF0AF
:1038D000CBFE059B049A83460093019250463146E5
:1038E0005A46C7E761218DE822000293039206F150
:1038F00004095046316801220A231EE007F1010E37
:1039000027F00F070F3FFFB2029303920EF0060E4F
:103910000097019506F10409504631680022CEF166
:1039200010030AE061218DE82200029303923168BE
:1039300006F10409504600221023FFF71BFD9CE707
:10394000073626F00706D6E900010492059350F0E9
:10395000BDF9049A059B00EE100A8DE80408504654
:1039600039462A4606F10809FFF78AFE85E79AE8F4
:1039700009004146012298470134B14608F101018E
:10398000D4E6204609B0BDE8F08F00BFD88905080D
:10399000DD8905080EB403B503AA52F8041B019291
:1039A000FFF7BEFE02B05DF804EB03B07047000005
:020000040802F0
:10000000034B1B685B681A69026018610020704727
:100010000C630020034B1B685B681A6912681A6145
:10002000704700BF0C630020C460056146618761B2
:10003000C0F81C80C0F82090C0F824A0C0F828B0F8
:10004000C0F82CD080ED0C8B80ED0E9B80ED10ABBA
:10005000C0F808E0FFF7D4BF08B5114B1B685A6819
:1000600013690BB923F0B4FC196858601161184684
:10007000C468056946698769D0F81C80D0F820906B
:10008000D0F824A0D0F828B0D0F82CD090ED0C8B6C
:1000900090ED0E9B90ED10ABD0F808E0012070477A
:1000A0000C63002010B50021044600F0ADFA18B929
:1000B00014B120460CF07EFA10BD002100F0A4BA65
:1000C00010B50121044600F09FFA18B914B120467A
:1000D0000CF070FA10BDFFF7E5BF10B501220C4619
:1000E00000F0DCFB18B914B120460CF063FA10BD27
:1000F00000F0D4BB00F05CBB2DE9F00F45F66C447A
:10010000C2F20004264600254FF0030BD4F8F0C1DC
:1001100000230133C218910802F003021CF80110F9
:10012000520041FA02F202F00302022AF1D0D4F89E
:10013000FC111B019A0801EB00100BB3043850F8B6
:10014000043F19071AD1D4F8FC118B4216D3591A5F
:10015000D6F800724FEA9118090901F0030CBB426E
:100160004FEA4C0C0AD2D6F8F03113F8089049FA4D
:100170000CFA0AF0030ABAF1010F08D0013ADED1F5
:10018000ADB1013D05F5827334F81300BEE70BFAFB
:100190000CFC3F2D4CEA090903F8089097BF05F5C0
:1001A0008273C6F804A226F813100135E6E7BDE80D
:1001B000F00F70472DE9F04F45F66C47C2F200078B
:1001C00083B0D7F8F431990024D00024A046B94672
:1001D0004FF0030B184607E0032A5ED0012A1CD01B
:1001E0000134B4EB800F15D2A508D7F8F03104F034
:1001F0000306595D760041FA06F202F00302022A74
:1002000003EB050CE8D1B8F1000F3BD10134B4EB9E
:10021000800FE9D303B0BDE8F08F4FEAD408D9F8D6
:10022000F83113F8082004F0070A42FA0AF0C00770
:10023000434427D52101D9F8FC0150F801C00844F6
:10024000BCF1000F13D0B1216A460BF0B5FB009B47
:100250003BB10CF0CDFB9DE803000CF09FFB0CF0D4
:10026000DFFBD7F8F82102EB080312F80820012180
:1002700001FA0AFA22EA0A021A70D7F8F031595D37
:1002800003EB050C0BFA06F621EA06018CF80010C8
:10029000D7F8F4014FF00108A2E7022202FA06F6AD
:1002A00021EA060159554FF00008D9F8F40197E703
:1002B000F8B521F00F031D1A42F6F342CFF62322C0
:1002C000ED0045F66C44C2F20004A2FB05156D0A70
:1002D000A3EB851E47192A460021C4F8F451AD004E
:1002E000C4F80032C4F8FCE1C4F8F001C4F8F871B5
:1002F0001FF078F9EA1DD208002138461FF072F984
:10030000002301214FF0FF32A4F88A12C4F8902292
:10031000C4F89432A4F88832C4F88C32F8BD00BF17
:1003200045F66C43C2F20003B3F888220132A3F809
:100330008822704745F66C43C2F20003B3F8882266
:10034000013AA3F88822704745F66C43C2F20003D5
:10035000B3F88802003018BF012070472DE9F84338
:1003600045F66C45C2F200050023B5F88822C5F8B1
:100370008C320132A5F88822C5F804322C1D05F50F
:10038000E6762F464FF0030854F8043F1A0718D1B9
:10039000D5F8FC21934214D39A1A9009120902F05D
:1003A00003014FEA410CD7F800128B4209D2D7F86B
:1003B000F031195C41FA0CF909F00309B9F1010FA8
:1003C00003D0B442E0D1BDE8F88308FA0CFC4CEA53
:1003D000010119541046FFF78FFEF2E72DE9F043B3
:1003E00083B041B345F66C46051FC2F200060024F7
:1003F0004FF0030855F8043F180704F1010418D121
:10040000D6F8FC21934214D39A1A9709120902F0E4
:1004100003004FEA400CD6F80002834209D2D6F816
:10042000F031D85D40FA0CF909F00309B9F1010F78
:1004300004D08C42DED103B0BDE8F08308FA0CFC96
:100440004CEA0000D85510460191FFF755FE01997E
:10045000EFE700BFF8B545F66C47C2F200073D462E
:10046000D7F8044200262CB3D7F8F401C7F8046289
:1004700084001FD0002403E00134B4EB800F15D2B8
:10048000D7F8F031A20804F003019A5C4B0042FA5D
:1004900003F303F00303032BEED12046FFF72CFEFA
:1004A000D5F8F4010134B4EB800FE9D3D7F8044256
:1004B000002CD9D1FFF77EFEB7F88832C7F89442F6
:1004C000013BA7F88832F8BD38B545F66C44C2F256
:1004D00000040025B4F88832C4F804520133A4F8AB
:1004E0008832FFF767FEB4F88832C4F89452013BB3
:1004F000A4F8883238BD00BF45F66C43C2F2000351
:100500002DE9F00FD3F80012D3F8FC21D3F8F0C195
:10051000D3F8F43100268A1A80E8440082B086605D
:10052000C6600661466186619CF800B001964FEA9C
:100530008309B246B04635463146334637467A00DF
:100540004BFA02F202F00302012A36D047D3022A04
:1005500004D108F101044460A04601310133B9EB34
:1005600003077C427C415CB99A0803F003071CF83E
:1005700002B07A004BFA02F202F00302012ADED83E
:10058000012933D0022902BF47690137476151452C
:1005900084BF81618A46012A14BF224644F00102C9
:1005A0008AB99A0803F003071CF802B07A004BFAE4
:1005B00002F202F00302012AC8D108F101014160F0
:1005C00088461146CAE7B54284BFC5602E468CB93D
:1005D0009A0825461CF802B003F00307AFE7019C18
:1005E000611C8160019101350021B7E7076901377E
:1005F0000761CCE701994FEA08120B014260836062
:1006000002B0BDE8F00F70470F302DE9F84F040934
:1006100001F0010600F0C88045F66C47C2F2000701
:10062000B7F88832002B40F0BF80B7F88A224FF02D
:10063000010C002A48D145F66C48C2F20008D7F8F0
:100640009402D7F8F451A84236D2D8F8F01100231A
:100650001AE001339C4244D912F00C0F1DD1013332
:100660009C4240F2988012F0300F1BD101339C4223
:1006700040F2948012F0C00F19D101339C4240F235
:1006800090800130A84217D20A5C12F0030FE0D02C
:1006900012F00C0F4FF00003E1D012F0300F4FF0CA
:1006A0000003E3D012F0C00F4FF00003E5D001309B
:1006B000A8424FF00003E7D3BCF1000F74D128F03B
:1006C000D1FE4FF0010CBAE7D7F88C12D7F8902280
:1006D000914238BF9C46AED328F0C4FE4FF0010CC7
:1006E000A9E78000C51A012B05F1010800F1010CF2
:1006F00008BF4FEA9C034FEA980208BFC7F894323C
:1007000008F003035B0011F802E04FF0010909FA59
:1007100003F9AB1C984249EA0E058D5428BF4FF0EF
:1007200002090FD39A08D7F8F05103F0030115F826
:1007300002E0490009FA01F1013341EA0E01984251
:10074000A954EFD2D7F8FCB1D7F88C324FEA081A87
:10075000C8EB0C020BEB0A09234445F66C45120169
:1007600048460021C7F88C32C2F200051EF03AFF5D
:1007700076B10023D5F8F8214BF80A304FEAD803B8
:100780000121D05C08F0070801FA08F10143D154B7
:100790004846BDE8F88F80000130A3E780000230B2
:1007A000A0E7800003309DE70020BDE8F88F00BF80
:1007B000F0B445F66C45C2F20005B5F8883293BB3B
:1007C00088B3D5F8FC31D5F8F811C01AC20903096D
:1007D0008E5C012703F0070407FA04F426EA0404F8
:1007E0008C54D5F8942280099042D5F8F02138BF76
:1007F000C5F89402145C03F003019808032749002C
:1008000007FA01F124EA010414540133D5F8F02168
:10081000980803F00301145C4E0044FA06F606F053
:100820000306022EEBD0F0BC704700BF10F00F02A1
:1008300010B418BF00201BD145F66C43C2F2000370
:10084000D3F8FC11884225D3D3F80042A04221D22C
:10085000411AD3F8F0418B090909E05C01F0030368
:100860005B0040FA03F303F00303012B104602D0B0
:100870005DF8044B704701300B189A0803F003032E
:10088000A25C5B0042FA03F303F00303022BF2D0F5
:100890000001EDE710465DF8044B70472DE9F84F75
:1008A0008046002800F01C8145F66C44C2F200042A
:1008B000002956D0B4F88872002F40F08B80D4F80D
:1008C000FC31D4F8F401C3EB08034FEA131A4FEAE2
:1008D000800C0AF1010301F10F009C454FEA101052
:1008E00040F20481D4F8F09101254FEA930B03F014
:1008F000030619F80BB076004BFA06F606F003066D
:10090000022E08BF013568D01EB901377E19B042EA
:1009100063D8A84200F0878063D32F44B84200F226
:10092000858005EB0A038244534538BF4FF0020E21
:100930000DD29A08D4F8F01103F003068F5C76000C
:100940000EFA06F601333E4353458E54F1D1421B55
:10095000120108EB051000211EF044FE4046BDE8E0
:10096000F88FB4F88832ABBBD4F8FC31D4F8F81166
:10097000C3EB00084FEAD8124FEA18138D5C03F05E
:100980000700012606FA00F025EA00008854D4F892
:1009900094224FEA98119142D4F8F02138BFC4F85C
:1009A0009412555C980803F003010327490007FAE5
:1009B00001F125EA010515540133D4F8F021980816
:1009C00003F00301155C4E0045FA06F606F0030637
:1009D000022EEBD00020BDE8F88F01339C4584D86F
:1009E00097E78244281A1EBF5044534603210ED075
:1009F0009A08D4F8F05103F00306AF5C760001FAD0
:100A000006F6013327EA06068342AE54F0D1D4F845
:100A1000941245F66C434FEA9A02C2F200038A42EE
:100A200038BFC3F894224046BDE8F88F4FEADA0099
:100A3000D4F8F8311B5C0AF0070A43FA0AFA45F6C3
:100A40006C470AF0010AC2F20007002AC2D0084629
:100A50005146FFF7D9FD06460028BBD02A01414682
:100A60001EF07CFDB7F88832BBBBD7F8FC31D7F855
:100A7000F811C3EB08084FEAD8124FEA1813885C44
:100A80004FF0010C03F007050CFA05F520EA05000C
:100A90008854D7F894224FEA98119142D4F8F02163
:100AA00038BFC7F89412505C9D0803F003014FF063
:100AB000030C49000CFA01F120EA01005055013302
:100AC000D4F8F0219D0803F00301505D4F0040FA77
:100AD00007F707F00307022FEBD03046BDE8F88F89
:100AE00008464146BDE8F84FFFF78EBD012510E7E7
:100AF00030B58BB003A8FFF7FFFC03AA2CCA48F659
:100B0000D014C0F6050444F2243100952046C0F606
:100B10000501E2F73FFF0999069D009144F2483133
:100B2000079A089B01952046C0F60501E2F732FFBF
:100B30000BB030BD2DE9F84F45F66C46C2F2000609
:100B400048F6D01044F29031C0F60501D6F8FC21E9
:100B5000C0F60500E2F71EFFD6F8F411890000F098
:100B6000D3804CF660274BF61408C0F60507C0F694
:100B700005080025B1462DE005F0030A4FEA4A0AB0
:100B80004FEA950BD6F8F03113F80B3043FA0AFA16
:100B90000AF0030ABAF1020F08BF3D2209D0BAF1E8
:100BA000030F08BF6D2204D0BAF1010F18BF2E2227
:100BB00063D048F6D01044F2D431C0F60501C0F637
:100BC0000500E2F7E7FED6F8F41101358900A942E5
:100BD00040F29A80A806CFD18D4222BF05F0030AC9
:100BE0004FEA4A0A4FEA950B36D2D6F8F0014FEA9F
:100BF000950B05F0030A10F80B304FEA4A0A43FA46
:100C00000AF39A0728D12C4604E0825C42FA03F3E7
:100C10009B0708D1013404F003038C424FEA94028D
:100C20004FEA4303F1D3621B7F2A15D948F6D0104F
:100C300044F2B0319209C0F60500C0F60501E2F7B2
:100C4000A9FED6F8F43124F03F05B5EB830F5BD253
:100C50004FEA950B4FF0000A4FF6F0722B01C0F2ED
:100C60000F0248F6D01044F2CC311A40C0F605010C
:100C7000C0F60500E2F78EFE84E72A01D9F8FC31C0
:100C80009B58BB4208BF542293D0434508BF4C2217
:100C90008FD04AF69012C0F60502934208BF442254
:100CA00087D04CF27C72C0F60502934238D04CF2E9
:100CB0003872C0F60502934232D04AF2A462C0F6FE
:100CC000050293422ED04AF26862C0F605029342B2
:100CD00028D04BF2D022C0F60502934208BF46222C
:100CE0003FF467AF4BF25042C0F60502934208BF93
:100CF00042223FF45EAF4BF67C12C0F605029342EF
:100D000014BF68224D2254E748F6D01044F2AC31AB
:100D1000C0F60500C0F60501BDE8F84FE2F7B8BA25
:100D2000532246E7412244E7054B5B695A689042EB
:100D300001D21B68FAE7821A043253F82200704786
:100D40006C5C0020014441F20553884205D210F842
:100D5000012B03EB43135340F7E798B2002808BF79
:100D600001207047034B044A5A610022C3F8D02186
:100D7000704700BF6C5C0020900E06082DE9F84F0C
:100D800080460E46FFF7DEFF154B5C69814624B3B3
:100D9000E36804F11007043304EB830A3D4655452C
:100DA000AB4618D255F8040B4178027842EA01228A
:100DB0004A45F4D18278B242F1D1033041463246FD
:100DC0001EF038FC0028EAD16368C7EB0B0703EB81
:100DD000A700BDE8F88F2468D9E72046BDE8F88F62
:100DE0006C5C00202DE9F84F81460E46FFF7C6FFE8
:100DF0000246002840F08280FF2E03D94148424934
:100E00000AF055FE414CD4F8D001351DD0B1D4F8CC
:100E1000D831D4F8D4112B448B4213D92944FFF78D
:100E200067F9074648B9D4F8D001D4F8D8113A4642
:100E3000FFF75EF9C4F8D07104E0D4F8D4312B4444
:100E4000C4F8D431D4F8D031B3B9802D2CBF2F469B
:100E500080273846FFF731F9C4F8D00138B9284661
:100E6000FFF72BF9294B2F46C3F8D00170B30023AD
:100E7000C4F8D471C4F8D831D4F8D881D4F8D0B13A
:100E8000DFF888A0314645444846C4F8D851FFF7FA
:100E900059FF0BEB08070BF80800000A7870BE70CA
:100EA0003246F81C49461EF059FBBB190026DE707D
:100EB00063699D68DB68AB4216D36D000A2D38BFAD
:100EC0000A25281D8000FFF7F8F810B928460BF016
:100ED00071FBDAF81420D1680260526885600A4418
:100EE0004260C660CAF814006369DA68511C0432B3
:100EF000D96043F822705A68013A0A441046BDE8A6
:100F0000F88F00BF5CAC0508885705086C5C0020B2
:100F100010B504461EF0A8FB01462046BDE810406F
:100F2000FFF760BF08B5FFF7FFFE4278007840EAA0
:100F3000022008BD08B5FFF7F7FE807808BD08B5A8
:100F4000FFF7F2FE033008BD10B50C46FFF7ECFECC
:100F500083780330236010BD2DE9F8431D4600233C
:100F600003600B6013602B60184B5C690746884672
:100F7000164624B3164B9C4221D03B6801333B609C
:100F8000D8F80020E3681344C8F80030E26804325F
:100F900004F1100304EB82018B4207D253F8040BD7
:100FA00032688078043202443260F5E72046D5F892
:100FB0000090FFF73BFC484428602468D9E72B6881
:100FC000326813442B60BDE8F88300BF6C5C0020DE
:100FD000900E06080C4B70B55C69A4B10B4B9C429B
:100FE00011D0E368043304F1100504EB8306B54225
:100FF00007D255F8042B064906480332E2F7CAFC2B
:10100000F5E72468E9E770BD6C5C0020900E0608E7
:1010100096570508D089050838B5456803682944FE
:101020009942044611D9037BDB0703D50748002109
:101030000AF03DFD01F1100525F00705083580682F
:101040002946FFF74AF82560A06038BD5CAC05086A
:1010500070B504460E4611461546FFF7DDFF63687E
:10106000A0682A46184431461EF0A4FA63681D445D
:10107000656070BD70B546680446B14234BF0D4628
:1010800035460121FFF7C8FFA168681C0844721BA0
:1010900029441EF08FFA6368A06801336360284416
:1010A00070BD38B504460025002914BF084601204C
:1010B00020606560FEF7F6FF237BA06065F3000308
:1010C000237338BD38B505460C460131FFF7E9FFFB
:1010D0006C6038BD00234360037B016043F0010373
:1010E000826003737047000038B514460546FFF769
:1010F000D8FF024B2560636038BD00BF5110020865
:10110000037BDA0710B5044602D48068FEF7F2FFCD
:101110000023A36010BD38B505461020FEF7C2FFBE
:1011200029460446FFF7BDFF204638BD10B50446EA
:1011300050B1037BD90702D48068FEF7DBFF20465D
:10114000BDE81040FEF7D6BF10BD000038B5037BE8
:101150000446D8070D4603D5074800210AF0A7FC2E
:101160002168A0682944FEF7B8FF2368A0601D44E9
:101170002560184438BD00BF5CAC050838B504468E
:101180000D46FFF749FF6368A0681D446560184479
:1011900038BD90E80C009A4210B5044602D10121F6
:1011A000FFF7D4FFA26863680021D154A06810BD86
:1011B00010B50C460121FFF7E1FF047010BD7F2937
:1011C000F8B50C4604D80121FFF7D8FF0470F8BD2C
:1011D000B1F5006F4FEA911601F03F0509D20221E7
:1011E000FFF7CCFF66F03F0665F07F05067045709F
:1011F000F8BDB1F5803F4FEA11370ED20321FFF75A
:10120000BDFF06F03F0667F01F0766F07F0665F03A
:101210007F05077046708570F8BD0421FFF7AEFFAB
:10122000A40C07F03F0706F03F0664F00F0467F0D8
:101230007F0766F07F0665F07F0504704770867053
:10124000C570F8BD38B5054608460C461EF00CFAC8
:10125000214602462846BDE83840FFF7F9BE10B5E2
:101260001446FFF707FF047010BD10B51446FFF7D2
:1012700001FF047010BD436899428BBF0023C1EB8E
:10128000030143604160704770B515464268914262
:1012900004460ED24B19934201D3416070BD86685B
:1012A000521A7018521BF1181EF084F963685D1B06
:1012B000656070BD03781A0613D503F07F034022E2
:1012C0001A4203D023EA02035208F9E710F8012F6B
:1012D00002F0C001802904D102F03F0242EA8313E8
:1012E000F4E718467047431C18460133027802F0B1
:1012F000C002802AF8D070470023814208D911F833
:10130000012C02F0C002802A18BF01330139F4E732
:10131000184670470144034600208B421A4608D203
:10132000127802F0C002802A03F1010318BF0130D5
:10133000F3E770477F2804D8034B185CC0F34000E4
:1013400070470020704700BF058A05087F2804D831
:10135000034B185CC0F3C00070470020704700BF0B
:10136000058A05087F2804D8034B185CC0F3800069
:1013700070470020704700BF058A05087F2804D801
:10138000034B185CC0F3801070470020704700BF0B
:10139000058A05087F2808D8064B1B5C13F00C0350
:1013A00001D0012002E05F28FBD0002000F0010006
:1013B000704700BF058A05087F2804D8034B185CD6
:1013C000C0F3001070470020704700BF058A050871
:1013D0007F2804D8034B185CC0F3401070470020EE
:1013E000704700BF058A050810B50446FFF7E4FF03
:1013F00010B104F1200010BD204610BD10B5044608
:10140000FFF7E6FF10B1A4F1200010BD204610BD8B
:101410003038092884BF20F0200007387047014485
:10142000024600208A4218D212F8013B30B103F084
:10143000C003802B16D10138C0B2F3E7BF2B09D906
:10144000F72B10D8DB0803F00603E520184100F065
:101450000300E7E71B0606D4E4E7D0F1010038BF3C
:101460000020704700207047023981420B4603D2AA
:101470000233181A401070471A880239002AF4D033
:10148000F6E7F0B51C0994421BD201EB4401121B94
:101490000239144606466CB131F8025F012C84BF54
:1014A0004F8845EA074503F00F07FD4026F8025B29
:1014B000013CF0E700EB420030F8023C1BB9501E43
:1014C000F0BD0020F0BD1046F0BD2DE9F041069FB3
:1014D0000024D21B3E46254656B131F8048033F82D
:1014E00004C0C44465440553013E2D0C0234F3E7A7
:1014F0007F00C41933460F4493424FEA430607D096
:1015000037F813100D4424F813502D0C0133F3E772
:10151000A2191DB1012124F813100232101A401033
:10152000BDE8F081F0B5059F0024D21B3E4625465C
:101530005EB131F804C0654433F804C0CCEB050556
:101540000553013E2D140234F2E77F00C4193346DF
:101550000F4493424FEA430107D037F813100D446C
:1015600024F813502D140133F3E72144BDE8F04073
:10157000FFF77ABF2DE9F04308ADE0CDDDF81C8020
:10158000A1F1020C541E0146B4F1FF3F21D03CF8FA
:10159000029F09F57F4909F1FF094E44C2EB080992
:1015A000A144A14507D8B3F8009009F57F4909F196
:1015B000FF09023301E04FF6FF794F4487EA06093D
:1015C00015FA89F521F8025B3F0C360C2D0C013C15
:1015D000DAE700EB420115B120F812500231BDE804
:1015E000F043FFF741BF10B5044638B18068FEF7FD
:1015F00081FD2046BDE81040FEF77CBD10BD38B52A
:101600000446806801298CBF0D46022518B1236865
:10161000B5EB930F07D96900FEF75FFD2368A06063
:1016200065F39F03236038BD38B505460C20FEF7EF
:1016300039FD2A78037862F300036FF3410304460F
:10164000037028682368C0F39D0060F39F03236044
:101650006B6840006360FEF725FDA0602A68A968FA
:10166000C2F39D0252001DF079FF204638BD10B52F
:101670004B001844134449B130F8024D33F8022DA1
:10168000A21A002A04DB06D10139F4E7084610BD8E
:101690004FF0FF3010BD012010BD38B504460D4697
:1016A0000221FFF7ACFF002D237804DA43F0010399
:1016B0002370694203E06FF300032370294600237F
:1016C000636039B16368A268581C606022F8131027
:1016D000090CF6E738BD037803F0FE036FF341030E
:1016E000037003686FF39F0303600023436083600C
:1016F000704728B103789B0702D48068FEF7FABCD4
:10170000704738B505460C464968FFF778FF2278E0
:101710002B78A868A16862F300032B7063686B6084
:101720006268BDE8384052001DF018BF034609B991
:1017300059607047FFF7B1BF38B504460D46FFF753
:10174000CAFF20462946BDE83840FFF7EFBF30B555
:101750000578816005F0FE0545F002050570056815
:1017600062F39F050022056042601946BDE83040E3
:10177000FFF7DCBF70B50421064614461D46FFF78F
:101780003EFF9DF81020337852B1002C75F1000116
:1017900006DA43F001033370624265EB450304E06F
:1017A0006FF30003337022462B460021716052EA2A
:1017B00003010CD07168B0684C1C746020F81120D3
:1017C000110C41EA0341180C0A460346EFE770BDCD
:1017D0002DE9F04110EE105A0378EA0F62F300038E
:1017E0000370C5F3C7535A1ED2B2FD2A064603D969
:1017F00000237360BDE8F081A3F17F07002FF7DBC2
:1018000004D10121BDE8F041FFF747BFA3F16F0804
:101810001022C5F31605162F98FBF2F845F40005C3
:1018200005DCC3F196030027DD403C4606E009379E
:10183000A3F1960407F00F0794FBF2F430464146FB
:10184000FFF7DDFEC6F8048024B1B0680021620015
:101850001DF0C8FE47B1B36805FA07F2C7F11007DB
:1018600023F81420FD4001346300444505D0B268DC
:101870000134D5522D0C0233F7E7BDE8F0812DE994
:10188000F047044601EB02080E46C2F35B011D4619
:101890000131089FFFF7B3FE237815B143F0010330
:1018A00001E065F30003237000236360354645457E
:1018B000284611D20278A2F13003092B05F1010567
:1018C0000FD9A2F14103192B02D8A2F1370308E086
:1018D000A2F16103192B02D9801BBDE8F087A2F1A8
:1018E0005703BB42F8D2A26860689BB29446014697
:1018F00051B1BCF800901FFA87FA0AFB09332CF8A3
:10190000023B01391B0CF3E702EB400113B122F853
:10191000103002318A1A52106260C8E7F8B50446E6
:1019200015461E4621B1531E1E444FF0FF3700E0FE
:101930000127E9000F3120460909FFF760FE2378EF
:1019400000226FF30003237062609DB100230F2A11
:1019500008DC317891400B43013D9BB202F1080253
:101960003E44F4D16168481C6060A068103A20F8D9
:101970001130EAE7A068616800EB4101FFF774FDF0
:101980006060F8BD0B46416810B5024609B9586859
:10199000B0B11478187804F0010400F00100001BC5
:1019A0000ED190689A685B68994203D305D8FFF717
:1019B0005EFE03E04FF0FF3000E0012004B1404242
:1019C00010BD884210B5044601D0FFF79AFE237877
:1019D0006FF30003237010BD884210B5044601D098
:1019E000FFF78FFE2378C3F30002C2F1010262F316
:1019F0000003237010BD88421FB5044601D0FFF7D5
:101A000080FE626842B920460121FFF7F8FDA26816
:101A100001231380636021E02378D9070ED56FF38B
:101A20000003A06823700123ADF80E300093014637
:101A30000DF10E03FFF776FD606013E0511C2046A8
:101A4000FFF7DDFDA06862680123ADF80E3000935A
:101A500001460DF10E03FFF738FD6060237843F077
:101A60000103237004B010BD2DE9F84F0D464968FD
:101A70000446164601B12AB920462946BDE8F84F6A
:101A8000FFF73FBE02F10F073F093944FFF7B7FDEB
:101A9000D5F804C0AB68A16816F00F0007EB0C0680
:101AA00006F100480CF1004208F1FF3802F1FF3264
:101AB0004FEA480803EB42094FF0000308BF10202B
:101AC00041449E4663456FF00102C0F1100A0CD0FC
:101AD0005A43013339F802B04BEA0E0E2EFA0AFAD5
:101AE00021F802A04FEA0E4EECE7534301EB030945
:101AF00002FB079202F1020907F100422EFA0AFEE8
:101B0000013A21F803E052004846002108F102089A
:101B10001DF068FD09EB080226B132F8023D0BB951
:101B2000013EF9E766602A78237862F300032370A8
:101B3000BDE8F88FF0B50D46496885B004461646F5
:101B400001B122B920462946FFF7DBFD43E0FFF74C
:101B500056FDA9686A68A0683346FFF792FC60608A
:101B60002B78217803F0010363F300010246217012
:101B70008BB300216868ADF80E10330981420BD099
:101B8000994209D0AF6837F811701FB10121ADF843
:101B90000E1001E00131F1E783420CD2A96806F092
:101BA0000F0631F81310012303FA06F6013E314205
:101BB00018BFADF80E30BDF80E3063B10123A06838
:101BC00012B90380636006E0009301460DF10E0335
:101BD000FFF77BFC606005B0F0BD73B515460646A7
:101BE0000C4688686B6849689268994204D306D8A5
:101BF000FFF73DFD002802DA23462C461D462278D9
:101C00002B7802F0010203F001039A420DD16168C2
:101C100030460131FFF7F3FC6B68B0680093A168B0
:101C20006268AB68FFF751FC0BE030466168FFF774
:101C3000E6FC6B68B0680093A1686268AB68FFF768
:101C400071FC70602278337862F30003337002B065
:101C500070BDF7B5154606460C4688686B6849683E
:101C60009268994206D301D9002707E0FFF7FFFCED
:101C70000028F9DA234601272C461D4622782B78C6
:101C800002F0010203F001039A420DD06168304670
:101C90000131FFF7B4FC6B68B0680093A16862681B
:101CA000AB68FFF712FC0BE030466168FFF7A7FC5A
:101CB0006B68B0680093A1686268AB68FFF732FC9C
:101CC0007060227833781FB1C2F30002C2F10102C2
:101CD00062F30003337003B0F0BD2DE9F04F1746F7
:101CE0004A687B689A4287B004460D4601D23D4659
:101CF0000F462B78DB0720D43B7813F001061CD16C
:101D000069682046FFF77BFC7968A068D7F808E08F
:101D1000AA6833460D463DB13EF80370D65A3E40A0
:101D2000C652013D0233F6E700EB4101FFF79CFB91
:101D30002378606065F300035FE069682046013145
:101D4000FFF75DFC7B682E78B9683F78039306F057
:101D5000010607F00107B6EB070CDCF1000252EBBD
:101D60000C025342D5F804E0AD68A0689BB204931E
:101D700073429BB2C7F1000A023D0593B446B846D0
:101D80001FFA8AFA0EF1FF33029581465D1C26D0B8
:101D9000029D35F802BF0295059D8BEA0505AC440E
:101DA000039DCEEB050B9B449B4598BFB1F800B05B
:101DB000049D94BF8AEA0B0BD346D84408EA0C0B67
:101DC0008BEA050B12FA8BF229F8022B98BF02312D
:101DD0004FEA18484FEA1C4C120C013BD6E700EBC7
:101DE0004E011AB1012320F81E300231FFF73CFBEF
:101DF000237860603E4066F30003237007B0BDE8BF
:101E0000F08F2DE9F84F16464A6873689A420546E6
:101E10000C4601D234460E462378DB072FD43278A5
:101E200012F001082BD161682846FFF7E8FB7068C3
:101E3000A7686468A968D6F808C0241A0346424611
:101E400043B13CF80280BE5A48EA06068E52013B76
:101E50000232F5E7400007440844A3424FEA430238
:101E600005D037F8132020F813200133F5E710448C
:101E7000411A2B78491069606FF3000348E06168EC
:101E800028460131FFF7BBFB2278B768D6F80490EB
:101E900036786168A868A46802F0010206F00106BD
:101EA000C2F1000AC6F1000E1FFA8AFA1FFA8EFE6E
:101EB0004B1E023C80464FF0010CB3F1FF3F1FD098
:101EC00034F802BF8BEA0A0B5A44C1EB090B9B445E
:101ED0009B4596BFB7F800B0F3468EEA0B0B5E4405
:101EE00046EA020B6FEA0B0B1CFA8BFC28F802CBBC
:101EF00098BF0237360C120C4FEA1C4C013BDCE752
:101F000000EB4101FFF7B0FA2B78686043F0010362
:101F10002B70BDE8F88FF0B516464A6873689A4290
:101F200085B005460C4601D234460E4622783378F9
:101F300002F0010203F001039A423BD16168284696
:101F4000FFF75DFB2278716812F0010222D1A768C9
:101F50006468A868B668641A0B4653B136F802C0C4
:101F600037F802E08CEA0E0E20F802E0013B023264
:101F7000F3E749000F440144A3424FEA430205D06E
:101F800037F8132021F813200133F5E71144FFF748
:101F90006BFA0AE000230091019302930393A8686F
:101FA000A1686268B368FFF7E5FA2B7868606FF3A1
:101FB00000031CE0616828460131FFF720FB7368CD
:101FC000A8680093012301932378DB4303F0010306
:101FD00002933378DB4303F001030393B368A168F2
:101FE0006268FFF7C7FA2B78686043F001032B7033
:101FF00005B0F0BD2DE9F04F4B6887B004460E46A2
:1020000015460BB1536823B90023636007B0BDE8E0
:10201000F08F814206D1FFF707FBB54207460AD190
:10202000054608E0824218BF002705D1FFF7FCFAF9
:102030000546074600E03E46736869682046194435
:10204000FFF7DDFA2268A068C2F39D02002152006A
:102050001DF0C8FAB368A0680493AB680390706879
:102060006968009003F1020C039B4FEA40080022CC
:1020700059B3002200989146A8B133F802A0CA448F
:10208000DDF81090CDF808A039F802903CF802ACC9
:10209000DDF808B00AFB09BB23F802B04FEA1B4980
:1020A00001380232E8E703EB0802B9F1000F04D06F
:1020B00008F1020223F808901A440398121A5210E9
:1020C000013902330CF1020CD2E7626032782B78CE
:1020D00002F0010203F001039A42237838460CBF54
:1020E00061F3000343F00103237007B0BDE8F04F34
:1020F000FFF779BA4B6870B50646144613B11378EA
:10210000DD0702D50023736070BD536823B9012138
:10211000BDE87040FFF7C1BA0846FFF785FA0546EB
